{
  "_format": "hh-sol-artifact-1",
  "contractName": "Marketplace",
  "sourceName": "contracts/Marketplace.sol",
  "abi": [
    {
      "inputs": [],
      "stateMutability": "nonpayable",
      "type": "constructor"
    },
    {
      "anonymous": false,
      "inputs": [
        {
          "indexed": false,
          "internalType": "uint256",
          "name": "itemId",
          "type": "uint256"
        },
        {
          "indexed": true,
          "internalType": "address",
          "name": "nft",
          "type": "address"
        },
        {
          "indexed": false,
          "internalType": "uint256",
          "name": "tokenId",
          "type": "uint256"
        },
        {
          "indexed": false,
          "internalType": "uint256",
          "name": "price",
          "type": "uint256"
        },
        {
          "indexed": true,
          "internalType": "address",
          "name": "seller",
          "type": "address"
        },
        {
          "indexed": true,
          "internalType": "address",
          "name": "buyer",
          "type": "address"
        }
      ],
      "name": "Bought",
      "type": "event"
    },
    {
      "anonymous": false,
      "inputs": [
        {
          "indexed": false,
          "internalType": "uint256",
          "name": "itemId",
          "type": "uint256"
        },
        {
          "indexed": true,
          "internalType": "address",
          "name": "nft",
          "type": "address"
        },
        {
          "indexed": false,
          "internalType": "uint256",
          "name": "tokenId",
          "type": "uint256"
        },
        {
          "indexed": false,
          "internalType": "uint256",
          "name": "price",
          "type": "uint256"
        },
        {
          "indexed": true,
          "internalType": "address",
          "name": "seller",
          "type": "address"
        }
      ],
      "name": "Offered",
      "type": "event"
    },
    {
      "inputs": [
        {
          "internalType": "uint256",
          "name": "_itemId",
          "type": "uint256"
        },
        {
          "internalType": "uint256",
          "name": "_tokenId",
          "type": "uint256"
        }
      ],
      "name": "buyNFT",
      "outputs": [],
      "stateMutability": "payable",
      "type": "function"
    },
    {
      "inputs": [
        {
          "internalType": "uint256",
          "name": "_itemId",
          "type": "uint256"
        }
      ],
      "name": "getItemOwnerHistory",
      "outputs": [
        {
          "components": [
            {
              "internalType": "address",
              "name": "owner",
              "type": "address"
            },
            {
              "internalType": "string",
              "name": "userAction",
              "type": "string"
            }
          ],
          "internalType": "struct Marketplace.ItemHistory[]",
          "name": "",
          "type": "tuple[]"
        }
      ],
      "stateMutability": "view",
      "type": "function"
    },
    {
      "inputs": [
        {
          "internalType": "uint256",
          "name": "_itemId",
          "type": "uint256"
        }
      ],
      "name": "getTotalPrice",
      "outputs": [
        {
          "internalType": "uint256",
          "name": "",
          "type": "uint256"
        }
      ],
      "stateMutability": "view",
      "type": "function"
    },
    {
      "inputs": [],
      "name": "itemCount",
      "outputs": [
        {
          "internalType": "uint256",
          "name": "",
          "type": "uint256"
        }
      ],
      "stateMutability": "view",
      "type": "function"
    },
    {
      "inputs": [
        {
          "internalType": "uint256",
          "name": "",
          "type": "uint256"
        },
        {
          "internalType": "uint256",
          "name": "",
          "type": "uint256"
        }
      ],
      "name": "itemOwnershipHistory",
      "outputs": [
        {
          "internalType": "address",
          "name": "owner",
          "type": "address"
        },
        {
          "internalType": "string",
          "name": "userAction",
          "type": "string"
        }
      ],
      "stateMutability": "view",
      "type": "function"
    },
    {
      "inputs": [
        {
          "internalType": "uint256",
          "name": "",
          "type": "uint256"
        }
      ],
      "name": "items",
      "outputs": [
        {
          "internalType": "uint256",
          "name": "itemId",
          "type": "uint256"
        },
        {
          "internalType": "contract IERC721",
          "name": "nft",
          "type": "address"
        },
        {
          "internalType": "uint256",
          "name": "tokenId",
          "type": "uint256"
        },
        {
          "internalType": "uint256",
          "name": "price",
          "type": "uint256"
        },
        {
          "internalType": "address payable",
          "name": "seller",
          "type": "address"
        },
        {
          "internalType": "bool",
          "name": "sold",
          "type": "bool"
        }
      ],
      "stateMutability": "view",
      "type": "function"
    },
    {
      "inputs": [
        {
          "internalType": "contract IERC721",
          "name": "_nft",
          "type": "address"
        },
        {
          "internalType": "uint256",
          "name": "_tokenId",
          "type": "uint256"
        },
        {
          "internalType": "uint256",
          "name": "_price",
          "type": "uint256"
        }
      ],
      "name": "makeItem",
      "outputs": [],
      "stateMutability": "nonpayable",
      "type": "function"
    }
  ],
  "bytecode": "0x608060405234801561001057600080fd5b506001600081905550611497806100286000396000f3fe6080604052600436106100705760003560e01c8063bfb231d21161004e578063bfb231d2146100f9578063c3d74ede1461013b578063ca7dd37514610179578063fa00afc7146101b657610070565b80631d85bf03146100755780636bfb0d01146100915780638e71e6a0146100bc575b600080fd5b61008f600480360381019061008a9190610d18565b6101df565b005b34801561009d57600080fd5b506100a66104e2565b6040516100b39190611038565b60405180910390f35b3480156100c857600080fd5b506100e360048036038101906100de9190610cef565b6104e8565b6040516100f09190610fb6565b60405180910390f35b34801561010557600080fd5b50610120600480360381019061011b9190610cef565b610642565b60405161013296959493929190611053565b60405180910390f35b34801561014757600080fd5b50610162600480360381019061015d9190610d18565b6106cb565b604051610170929190610f86565b60405180910390f35b34801561018557600080fd5b506101a0600480360381019061019b9190610cef565b6107b4565b6040516101ad9190611038565b60405180910390f35b3480156101c257600080fd5b506101dd60048036038101906101d89190610ca0565b6107eb565b005b6101e7610b79565b600060036000848152602001908152602001600020905060008311801561021057506001548311155b61024f576040517f08c379a000000000000000000000000000000000000000000000000000000000815260040161024690610ff8565b60405180910390fd5b60018160040160146101000a81548160ff0219169083151502179055508060010160009054906101000a900473ffffffffffffffffffffffffffffffffffffffff1673ffffffffffffffffffffffffffffffffffffffff166323b872dd303384600201546040518463ffffffff1660e01b81526004016102d193929190610f4f565b600060405180830381600087803b1580156102eb57600080fd5b505af11580156102ff573d6000803e3d6000fd5b505050506002600083815260200190815260200160002060405180604001604052803373ffffffffffffffffffffffffffffffffffffffff1681526020016040518060400160405280600381526020017f4275790000000000000000000000000000000000000000000000000000000000815250815250908060018154018082558091505060019003906000526020600020906002020160009091909190915060008201518160000160006101000a81548173ffffffffffffffffffffffffffffffffffffffff021916908373ffffffffffffffffffffffffffffffffffffffff1602179055506020820151816001019080519060200190610402929190610bd3565b5050503373ffffffffffffffffffffffffffffffffffffffff168160040160009054906101000a900473ffffffffffffffffffffffffffffffffffffffff1673ffffffffffffffffffffffffffffffffffffffff168260010160009054906101000a900473ffffffffffffffffffffffffffffffffffffffff1673ffffffffffffffffffffffffffffffffffffffff167f8b4c9c8a607d67b321582dd8461041b1dc2ceeca70c8b7f37f8e02095cf2e76d86856002015486600301546040516104cd939291906110b4565b60405180910390a4506104de610bc9565b5050565b60015481565b606060026000838152602001908152602001600020805480602002602001604051908101604052809291908181526020016000905b8282101561063757838290600052602060002090600202016040518060400160405290816000820160009054906101000a900473ffffffffffffffffffffffffffffffffffffffff1673ffffffffffffffffffffffffffffffffffffffff1673ffffffffffffffffffffffffffffffffffffffff1681526020016001820180546105a69061129f565b80601f01602080910402602001604051908101604052809291908181526020018280546105d29061129f565b801561061f5780601f106105f45761010080835404028352916020019161061f565b820191906000526020600020905b81548152906001019060200180831161060257829003601f168201915b5050505050815250508152602001906001019061051d565b505050509050919050565b60036020528060005260406000206000915090508060000154908060010160009054906101000a900473ffffffffffffffffffffffffffffffffffffffff16908060020154908060030154908060040160009054906101000a900473ffffffffffffffffffffffffffffffffffffffff16908060040160149054906101000a900460ff16905086565b600260205281600052604060002081815481106106e757600080fd5b9060005260206000209060020201600091509150508060000160009054906101000a900473ffffffffffffffffffffffffffffffffffffffff16908060010180546107319061129f565b80601f016020809104026020016040519081016040528092919081815260200182805461075d9061129f565b80156107aa5780601f1061077f576101008083540402835291602001916107aa565b820191906000526020600020905b81548152906001019060200180831161078d57829003601f168201915b5050505050905082565b600060648060036000858152602001908152602001600020600301546107da9190611182565b6107e49190611151565b9050919050565b6107f3610b79565b60008111610836576040517f08c379a000000000000000000000000000000000000000000000000000000000815260040161082d90610fd8565b60405180910390fd5b60016000815480929190610849906112d1565b91905055508273ffffffffffffffffffffffffffffffffffffffff166323b872dd3330856040518463ffffffff1660e01b815260040161088b93929190610f4f565b600060405180830381600087803b1580156108a557600080fd5b505af11580156108b9573d6000803e3d6000fd5b505050506040518060c0016040528060015481526020018473ffffffffffffffffffffffffffffffffffffffff1681526020018381526020018281526020013373ffffffffffffffffffffffffffffffffffffffff168152602001600015158152506003600060015481526020019081526020016000206000820151816000015560208201518160010160006101000a81548173ffffffffffffffffffffffffffffffffffffffff021916908373ffffffffffffffffffffffffffffffffffffffff160217905550604082015181600201556060820151816003015560808201518160040160006101000a81548173ffffffffffffffffffffffffffffffffffffffff021916908373ffffffffffffffffffffffffffffffffffffffff16021790555060a08201518160040160146101000a81548160ff0219169083151502179055509050506002600083815260200190815260200160002060405180604001604052803373ffffffffffffffffffffffffffffffffffffffff1681526020016040518060400160405280600481526020017f4c69737400000000000000000000000000000000000000000000000000000000815250815250908060018154018082558091505060019003906000526020600020906002020160009091909190915060008201518160000160006101000a81548173ffffffffffffffffffffffffffffffffffffffff021916908373ffffffffffffffffffffffffffffffffffffffff1602179055506020820151816001019080519060200190610afe929190610bd3565b5050503373ffffffffffffffffffffffffffffffffffffffff168373ffffffffffffffffffffffffffffffffffffffff167f655a0cf9c8db81512be9a76dc1c5ae5380b8816ce6ad659cd61b715e2999d59a6001548585604051610b64939291906110b4565b60405180910390a3610b74610bc9565b505050565b60026000541415610bbf576040517f08c379a0000000000000000000000000000000000000000000000000000000008152600401610bb690611018565b60405180910390fd5b6002600081905550565b6001600081905550565b828054610bdf9061129f565b90600052602060002090601f016020900481019282610c015760008555610c48565b82601f10610c1a57805160ff1916838001178555610c48565b82800160010185558215610c48579182015b82811115610c47578251825591602001919060010190610c2c565b5b509050610c559190610c59565b5090565b5b80821115610c72576000816000905550600101610c5a565b5090565b600081359050610c8581611433565b92915050565b600081359050610c9a8161144a565b92915050565b600080600060608486031215610cb557600080fd5b6000610cc386828701610c76565b9350506020610cd486828701610c8b565b9250506040610ce586828701610c8b565b9150509250925092565b600060208284031215610d0157600080fd5b6000610d0f84828501610c8b565b91505092915050565b60008060408385031215610d2b57600080fd5b6000610d3985828601610c8b565b9250506020610d4a85828601610c8b565b9150509250929050565b6000610d608383610f03565b905092915050565b610d71816111ee565b82525050565b610d80816111dc565b82525050565b610d8f816111dc565b82525050565b6000610da0826110fb565b610daa818561111e565b935083602082028501610dbc856110eb565b8060005b85811015610df85784840389528151610dd98582610d54565b9450610de483611111565b925060208a01995050600181019050610dc0565b50829750879550505050505092915050565b610e1381611200565b82525050565b610e2281611248565b82525050565b6000610e3382611106565b610e3d818561112f565b9350610e4d81856020860161126c565b610e56816113a7565b840191505092915050565b6000610e6c82611106565b610e768185611140565b9350610e8681856020860161126c565b610e8f816113a7565b840191505092915050565b6000610ea7601f83611140565b9150610eb2826113b8565b602082019050919050565b6000610eca601283611140565b9150610ed5826113e1565b602082019050919050565b6000610eed601f83611140565b9150610ef88261140a565b602082019050919050565b6000604083016000830151610f1b6000860182610d77565b5060208301518482036020860152610f338282610e28565b9150508091505092915050565b610f498161123e565b82525050565b6000606082019050610f646000830186610d86565b610f716020830185610d86565b610f7e6040830184610f40565b949350505050565b6000604082019050610f9b6000830185610d86565b8181036020830152610fad8184610e61565b90509392505050565b60006020820190508181036000830152610fd08184610d95565b905092915050565b60006020820190508181036000830152610ff181610e9a565b9050919050565b6000602082019050818103600083015261101181610ebd565b9050919050565b6000602082019050818103600083015261103181610ee0565b9050919050565b600060208201905061104d6000830184610f40565b92915050565b600060c0820190506110686000830189610f40565b6110756020830188610e19565b6110826040830187610f40565b61108f6060830186610f40565b61109c6080830185610d68565b6110a960a0830184610e0a565b979650505050505050565b60006060820190506110c96000830186610f40565b6110d66020830185610f40565b6110e36040830184610f40565b949350505050565b6000819050602082019050919050565b600081519050919050565b600081519050919050565b6000602082019050919050565b600082825260208201905092915050565b600082825260208201905092915050565b600082825260208201905092915050565b600061115c8261123e565b91506111678361123e565b92508261117757611176611349565b5b828204905092915050565b600061118d8261123e565b91506111988361123e565b9250817fffffffffffffffffffffffffffffffffffffffffffffffffffffffffffffffff04831182151516156111d1576111d061131a565b5b828202905092915050565b60006111e78261121e565b9050919050565b60006111f98261121e565b9050919050565b60008115159050919050565b6000611217826111dc565b9050919050565b600073ffffffffffffffffffffffffffffffffffffffff82169050919050565b6000819050919050565b60006112538261125a565b9050919050565b60006112658261121e565b9050919050565b60005b8381101561128a57808201518184015260208101905061126f565b83811115611299576000848401525b50505050565b600060028204905060018216806112b757607f821691505b602082108114156112cb576112ca611378565b5b50919050565b60006112dc8261123e565b91507fffffffffffffffffffffffffffffffffffffffffffffffffffffffffffffffff82141561130f5761130e61131a565b5b600182019050919050565b7f4e487b7100000000000000000000000000000000000000000000000000000000600052601160045260246000fd5b7f4e487b7100000000000000000000000000000000000000000000000000000000600052601260045260246000fd5b7f4e487b7100000000000000000000000000000000000000000000000000000000600052602260045260246000fd5b6000601f19601f8301169050919050565b7f5072696365206d7573742062652067726561746572207468616e207a65726f00600082015250565b7f6974656d20646f65736e27742065786973740000000000000000000000000000600082015250565b7f5265656e7472616e637947756172643a207265656e7472616e742063616c6c00600082015250565b61143c8161120c565b811461144757600080fd5b50565b6114538161123e565b811461145e57600080fd5b5056fea26469706673582212202578cccc38d6e1946b1209564e7642188233fa6558d0e0b0d37d582ef4c9c5d064736f6c63430008040033",
  "linkReferences": {},
  "deployedLinkReferences": {}
}